:100000000C945E000C9486000C9486000C94860080
:100010000C9486000C9486000C9486000C949A0430
:100020000C9486000C9486000C9486000C94860038
:100030000C9486000C9486000C9486000C94860028
:100040000C944E050C9486000C941C050C94F6043C
:100050000C9486000C9486000C9486000C94860008
:100060000C9486000C9486000000000024002700F9
:100070002A0000000008000201000003040700003D
:10008000000000000000010204081020408001026E
:1000900004081020010204081020000000002500C0
:1000A00028002B00040404040404040402020202D5
:1000B000020203030303030302002C0711241FBEE3
:1000C000CFEFD8E0DEBFCDBF11E0A0E0B1E0E4E4C7
:1000D000FFE002C005900D92A431B107D9F721E0ED
:1000E000A4E1B1E001C01D92AB3CB207E1F710E022
:1000F000CEE5D0E004C02197FE010E949A07CD35DD
:10010000D107C9F70E9498050C94A0070C94000031
:1001100084E480937C0080917A00806480937A00EC
:1001200080917A0086FDFCCF8091780090917900D3
:100130000895AF92BF92CF92DF92EF92FF920F930A
:100140001F93CF93DF936C017B018B01040F151F6D
:10015000EB015E01AE18BF08C017D10759F06991D5
:10016000D601ED91FC910190F081E02DC601099539
:10017000892B79F7C501DF91CF911F910F91FF90E6
:10018000EF90DF90CF90BF90AF900895FC01538D1A
:10019000448D252F30E0842F90E0821B930B541761
:1001A00010F0CF96089501970895FC01918D828DEE
:1001B000981761F0A28DAE0FBF2FB11D5D968C9187
:1001C000928D9F5F9F73928F90E008958FEF9FEFC6
:1001D0000895FC01918D828D981731F0828DE80F82
:1001E000F11D858D90E008958FEF9FEF0895FC013C
:1001F000918D228D892F90E0805C9F4F821B910909
:100200008F73992708958DE191E00E94F70021E016
:10021000892B09F420E0822F089580E090E0892B5B
:1002200029F00E94030181110C9400000895FC0143
:10023000A48DA80FB92FB11DA35ABF4F2C91848D47
:1002400090E001968F739927848FA689B7892C93A4
:10025000A089B1898C91837080648C93938D848DF7
:10026000981306C00288F389E02D80818F7D8083FA
:100270000895EF92FF920F931F93CF93DF93EC01BA
:1002800081E0888F9B8D8C8D98131AC0E889F9893D
:10029000808185FF15C09FB7F894EE89FF89608340
:1002A000E889F98980818370806480839FBF81E0C1
:1002B00090E0DF91CF911F910F91FF90EF90089503
:1002C000F62E0B8D10E00F5F1F4F0F731127E02EDE
:1002D0008C8D8E110CC00FB607FCFACFE889F98916
:1002E000808185FFF5CFCE010E941701F1CFEB8D04
:1002F000EC0FFD2FF11DE35AFF4FF0829FB7F894EA
:100300000B8FEA89FB8980818062CFCFCF93DF9307
:10031000EC01888D8823B9F0AA89BB89E889F9891D
:100320008C9185FD03C0808186FD0DC00FB607FC52
:10033000F7CF8C9185FFF2CF808185FFEDCFCE0185
:100340000E941701E9CFDF91CF91089590E0FC0161
:10035000EE58FF4F2491FC01EA57FF4F3491FC0106
:10036000EC55FF4FE491EE23C9F0222339F02330FE
:1003700001F1A8F4213019F1223029F1F0E0EE0F5B
:10038000FF1FE656FF4FA591B4918FB7F894EC91FB
:10039000611126C030953E233C938FBF08952730CE
:1003A000A9F02830C9F0243049F7809180008F7D72
:1003B00003C0809180008F7780938000DFCF84B569
:1003C0008F7784BDDBCF84B58F7DFBCF8091B0006C
:1003D0008F778093B000D2CF8091B0008F7DF9CF1E
:1003E0003E2BDACF9091000189130BC0E8EBF0E0CF
:1003F000E4919FEF90930001E13049F028F0E23062
:1004000061F060E00C94A60110926E00FACF90911A
:100410006F009D7F90936F00F4CF909170009D7F4F
:100420009093700091E09093B0009091B100987F0C
:1004300094609093B1001092B300E3CFCF93DF9319
:1004400090E0FC01EA57FF4F24918C559F4FFC012F
:1004500084918823D1F090E0880F991FFC01E8591E
:10046000FF4FA591B491FC01E656FF4FC591D49181
:1004700061110EC09FB7F8948C91E22FE0958E2306
:100480008C932881E223E8839FBFDF91CF91089569
:100490008FB7F894EC91E22BEC938FBFF6CF0F93CC
:1004A0001F93CF938B0190910001891739F09F3FE3
:1004B00009F443C0CF911F910F910895E8EBF0E04C
:1004C000C491C7FDF7CF61E00E941E02CC2319F052
:1004D000C23009F0ABC0980150E040E068E478EE2B
:1004E00081E090E00E945907BA01A90141505109E9
:1004F00061097109CC2309F4D9C08091B100887FCA
:1005000084608093B100C13009F4A8C0C23009F4FE
:10051000BAC0C111CFCF47BD8FEF9FEFDC018093F1
:10052000C7019093C801A093C901B093CA018091FB
:100530006E00826080936E00BDCF80930001E8EB77
:10054000F0E0C491CF3F09F4B5CFC13039F148F0A4
:10055000C23009F445C0C7FDADCF61E00E941E0264
:10056000B7CF14BC15BC94B5926094BD95B591609D
:1005700095BD282F30E0F901EC55FF4FE491F0E0F4
:10058000EE0FFF1FE656FF4F45915491F901EA57D0
:10059000FF4FE491E093BE01C0E095CF1092800040
:1005A00010928100909181009860909381009091C9
:1005B0008100916090938100282F30E0F901EC5583
:1005C000FF4FE491F0E0EE0FFF1FE656FF4F45911D
:1005D0005491F901EA57FF4FE491E093BD0173CFC5
:1005E0001092B0001092B1009091B0009260909380
:1005F000B0009091B10091609093B100282F30E04D
:10060000F901EC55FF4FE491F0E0EE0FFF1FE656C5
:10061000FF4F459154915093BC014093BB01F901A8
:10062000EA57FF4FE491E093BA014DCF980150E0B3
:1006300040E060E072E18AE790E00E945907BA0169
:10064000A9014150510961097109C13009F05BCF1D
:1006500080918100887F8160809381005093890020
:10066000409388008FEF9FEFDC018093C30190934C
:10067000C401A093C501B093C60180916F00826050
:1006800080936F0017CF4093B3008FEF9FEFDC0193
:100690008093BF019093C001A093C101B093C201A8
:1006A0008091700082608093700004CF85B5887F50
:1006B000836085BD30CF3FB7F89480911901909148
:1006C0001A01A0911B01B0911C0126B5A89B05C081
:1006D0002F3F19F00196A11DB11D3FBFBA2FA92FC1
:1006E000982F8827BC01CD01620F711D811D911DBE
:1006F00042E0660F771F881F991F4A95D1F708952A
:100700008F929F92AF92BF92CF92DF92EF92FF9221
:100710004B015C010E945B036B017C010E945B0347
:100720006C197D098E099F09683E7340810591050A
:10073000A8F321E0821A9108A108B10888EEC80E3A
:1007400083E0D81EE11CF11C81149104A104B104C2
:1007500029F7FF90EF90DF90CF90BF90AF909F90E0
:100760008F90089564E873E086E00E944F026CE287
:1007700071E080E090E00E94800368E572E086E02E
:100780000E944F026CE271E080E090E00E948003E2
:1007900064E873E086E00E944F026CE271E080E062
:1007A00090E00E94800368E572E086E00E944F02BC
:1007B0006CE271E080E090E00E94800364E873E006
:1007C00086E00E944F026CE271E080E090E00E94BF
:1007D000800368E572E086E00E944F026CE271E0FF
:1007E00080E090E00E94800364E873E086E00E946D
:1007F0004F026CE271E080E090E00E94800368E5C7
:1008000072E086E00C944F0261E088E00E94A6014D
:1008100060E08AE00E94A60161E08DE00E94A601EE
:1008200060E085E00E94A60161E089E00E94A601E7
:1008300060E084E00E94A60161E082E00E94A601DF
:1008400060E087E00E94A60161E08CE00C94A601C4
:1008500061E085E00E94A60160E089E00E94A601B7
:1008600060E088E00E94A60161E08AE00E94A601A3
:1008700060E084E00E94A60161E082E00E94A6019F
:1008800060E087E00E94A60161E08CE00E94A60182
:1008900060ED77E080E090E00C94800361E087E019
:1008A0000E94A60160E08CE00E94A60160E085E065
:1008B0000E94A60161E089E00E94A60160E084E058
:1008C0000E94A60161E082E00E94A60160E088E04B
:1008D0000E94A60161E08AE00E94A60168E873E137
:1008E00080E090E00C94800361E084E00E94A60127
:1008F00060E082E00E94A60160E085E00E94A6011F
:1009000061E089E00E94A60160E088E00E94A60103
:1009100061E08AE00E94A60160E087E00E94A601F3
:1009200061E08CE00E94A60168EB7BE080E090E053
:100930000C9480031F920F920FB60F9211242F93E5
:100940003F934F935F936F937F938F939F93AF9357
:10095000BF93EF93FF938091BF019091C001A0914D
:10096000C101B091C201892B8A2B8B2BD1F19091BF
:10097000BA01E091BB01F091BC018081892780839D
:100980008091BF019091C001A091C101B091C201BD
:10099000181619061A061B069CF48091BF01909147
:1009A000C001A091C101B091C2010197A109B10993
:1009B0008093BF019093C001A093C101B093C20185
:1009C000FF91EF91BF91AF919F918F917F916F9127
:1009D0005F914F913F912F910F900FBE0F901F90FD
:1009E0001895809100010E94F201EACF1F920F92A8
:1009F0000FB60F9211242F933F934F935F936F93F2
:100A00007F938F939F93AF93BF93EF93FF938DE16A
:100A100091E00E941701FF91EF91BF91AF919F91DB
:100A20008F917F916F915F914F913F912F910F9097
:100A30000FBE0F901F9018951F920F920FB60F9236
:100A400011242F938F939F93EF93FF93E0912D01A8
:100A5000F0912E018081E0913301F091340182FD0B
:100A60001BC09081809136018F5F8F732091370179
:100A7000821741F0E0913601F0E0E35EFE4F958F82
:100A800080933601FF91EF919F918F912F910F905D
:100A90000FBE0F901F9018958081F4CF1F920F9278
:100AA0000FB60F9211242F933F938F939F93AF9381
:100AB000BF938091150190911601A0911701B091FB
:100AC00018013091140123E0230F2D3758F50196BA
:100AD000A11DB11D2093140180931501909316015F
:100AE000A0931701B09318018091190190911A01F8
:100AF000A0911B01B0911C010196A11DB11D809315
:100B0000190190931A01A0931B01B0931C01BF918E
:100B1000AF919F918F913F912F910F900FBE0F90AA
:100B20001F90189526E8230F0296A11DB11DD2CF64
:100B3000789484B5826084BD84B5816084BD85B5B8
:100B4000826085BD85B5816085BD80916E008160C4
:100B500080936E001092810080918100826080936A
:100B6000810080918100816080938100809180006C
:100B70008160809380008091B10084608093B10097
:100B80008091B00081608093B00080917A00846091
:100B900080937A0080917A00826080937A008091BD
:100BA0007A00816080937A0080917A0080688093D7
:100BB0007A001092C100E0912D01F0912E0182E0A7
:100BC0008083E0912901F0912A011082E0912B01AC
:100BD000F0912C018FEC808310923501E09131016E
:100BE000F091320186E08083E0912F01F091300195
:100BF000808180618083E0912F01F09130018081BC
:100C000088608083E0912F01F091300180818068BD
:100C10008083E0912F01F091300180818F7D80836E
:100C200061E08AE00E941E0261E088E00E941E02EC
:100C300061E089E00E941E0261E085E00E941E02E0
:100C400061E082E00E941E0261E084E00E941E02D8
:100C500061E08CE00E941E0261E087E00E941E02BB
:100C600060E082E10E941E0261E08DE00E941E02AF
:100C7000C0E0D0E061E088E00E94A60160E08AE088
:100C80000E94A60160E085E00E94A60161E089E083
:100C90000E94A60160E084E00E94A60161E082E07B
:100CA0000E94A60160E087E00E94A60161E08CE05E
:100CB0000E94A60168E873E180E090E00E94800352
:100CC0000E9488000E9474040E94B2036CE271E0EA
:100CD00080E090E00E9480030E9488008C010E94C6
:100CE000B2036CE271E080E090E00E94800386E055
:100CF0000E94F201083C11050CF49FC00E940404FC
:100D00000E94B2036CE271E080E090E00E948003F8
:100D10000E94B20362E370E080E090E00E948003F2
:100D200086E00E94F20168E873E180E090E00E94B2
:100D3000800360E08DE00E94A6010E944E040E94A4
:100D4000B2036CE271E080E090E00E9480030E94B8
:100D500088008C010E94B2036CE271E080E090E0B8
:100D60000E94800386E00E94F201083C11050CF409
:100D700067C00E9404040E94B2036CE271E080E04C
:100D800090E00E9480030E94B20362E370E080E082
:100D900090E00E94800386E00E94F20168E873E11F
:100DA00080E090E00E94800360E08DE00E94A60158
:100DB0000E9428040E94B2036CE271E080E090E09F
:100DC0000E9480030E9488008C010E94B2036CE2A2
:100DD00071E080E090E00E94800386E00E94F201D2
:100DE000083C110584F10E9404040E94B2036CE2E5
:100DF00071E080E090E00E9480030E94B20362E311
:100E000070E080E090E00E94800386E00E94F201A2
:100E100068E873E180E090E00E94800360E08DE08C
:100E20000E94A601209709F425CF0E940301882380
:100E300009F420CF0E9400001DCF0E9474047DCFD2
:100E40000E944E04B5CF0E94280468EB7BE080E04E
:100E500090E00E948003E6CFEDE1F1E01382128280
:100E600088EE93E0A0E0B0E084839583A683B78307
:100E700085E091E09183808385EC90E0958784877D
:100E800084EC90E09787868780EC90E0918B808B54
:100E900081EC90E0938B828B82EC90E0958B848B3D
:100EA00086EC90E0978B868B118E128E138E148EAB
:100EB0000895052E97FB1EF400940E94700757FDBD
:100EC00007D00E94780707FC03D04EF40C947007FB
:100ED00050954095309521953F4F4F4F5F4F089566
:100EE00090958095709561957F4F8F4F9F4F089596
:100EF000A1E21A2EAA1BBB1BFD010DC0AA1FBB1F1E
:100F0000EE1FFF1FA217B307E407F50720F0A21B8F
:100F1000B30BE40BF50B661F771F881F991F1A94FC
:100F200069F760957095809590959B01AC01BD0126
:100F3000CF010895EE0FFF1F0590F491E02D099465
:040F4000F894FFCF53
:100F4400FF0000000039019900C6008601F700D5B2
:040F540000E90000B0
:00000001FF
